:020000006F2966
:10000800FF00030E8301C4000A08C3008A017008B8
:10001800A00006308100BE0A0319BF0A0B113F0871
:10002800033A031D1928E8303E06031D3428BE0193
:10003800BF01A10A0130880621083C3A031D342873
:10004800A101A20A22083C3A031D3428A101A201F9
:10005800B30A3308183A031D3428A101A201B301D9
:100068002008F00043088A00440E8300FF0E7F0E2C
:0200780009007D
:10007A00103083120313FD00FD0B41280000080015
:04008A00000008006A
:10008E00083083120313FC002330FD00FD0B4D28B6
:06009E00FC0B4D280800D8
:1000A40083120313CB1B58288813592888174B1B1A
:1000B4005D2808135E280817CB1A62288812632863
:1000C40088164B1A672808126828081640186C28E6
:1000D40008156D280811881545208811CB19742836
:1000E4008813752888174B19792808137A28081754
:1000F400CB187E2888127F2888164B18832808126C
:100104008428081640188828081589280811881595
:1001140045208811401C9028472091283D20080044
:100124008312031340104A08CB00522040140800E5
:0E0134008312031342088A004108820008006B
:1001420083160313881108110812881208138813E2
:100152008312881108118813081388120812472085
:100162004720472088160816881545208811472001
:100172008815452088114720881545208811472079
:1001820008128815452088114720881545208811B6
:100192008812881788154520881147208813081669
:1001A2008815452088110812881545208811472096
:1001B2008815452088110816881545208811472082
:1001C20008128815452088118817081788160816FE
:0C01D200881545208811472040140800C3
:1001DE000129803083120313C6001429C030C600D3
:1001EE0014299430C6001429D430C6001429803046
:1001FE00C6001429831203134608013A0319F02886
:10020E004608023A0319F5284608033A0319F82856
:10021E004608043A0319FB28FE284703F000460857
:10022E00F0077008C6007008CB0052204010C901BC
:10023E00490848078400000803192D294908480772
:10024E0084000008CA009220C90A1F294014080021
:10025E00FF30831603138600FF3083128600831649
:10026E008801831288018B170B138B16813083162E
:10027E008100063083128100A1200130CB00522074
:10028E000C30CB0052200130C6000130C7002430A4
:06029E00C800EF2008007B
:1002A40083120313F8010830FC00700DF80D740874
:1002B400F80203185F29F8070310F00DFC0B572907
:0202C400080030
:1002C6009A208A110A128000840AC10A0319C20AF6
:0802D600F003031D6329080079
:1002DE0083120313A101A201A3012030A400203038
:1002EE00A5004230A6006130A7007330A800693027
:1002FE00A9006330AA002030AB002030AC004330A0
:10030E00AD006C30AE006F30AF006330B0006B30BC
:10031E00B100B201B3013530B4003030B500303029
:10032E00B6003A30B7003030B8003030B9003A304D
:10033E00BA003030BB003030BC00BD012F21340874
:10034E00C5000A30F4003308F00052213030F007B7
:10035E004508840070088000340AC5000A30F40095
:10036E003308F00052217808F0003030F0074508CD
:10037E0084007008800003303407C5000A30F40092
:10038E002208F00052213030F00745088400700832
:10039E00800004303407C5000A30F4002208F00053
:1003AE0052217808F0003030F007450884007008BC
:1003BE00800006303407C5000A30F4002108F00032
:1003CE0052213030F0074508840070088000073055
:1003DE003407C5000A30F4002108F00052217808D5
:1003EE00F0003030F00745088400700880000230BD
:1003FE00C6000530C7003408C800EF20061C082AC6
:10040E002314861C0B2AA314061D0E2A2315061868
:10041E00142A231C142A2310A10186181F2AA31C98
:10042E001F2AA310A20A3C302202031C1F2AA2017B
:10043E0006192A2A231D2A2A2311B30A1830330239
:0A044E00031C2A2AB301A6292B2A59
:02400E004A2F37
:00000001FF
