:020000008A294B
:10000600710DF80DF90D7408F8027508031C750FCB
:10001600F902F00DF10D0F30FC00710DF80DF90D20
:100026007408701C1C28F8027508031C750FF90269
:100036002128F80775080318750FF907F00DF10D5B
:10004600FC0B102870182D287408F807750803187B
:08005600750FF9070000080016
:10005E00831203137408003A031D3E287508003AF4
:10006E00031D3E28FF30F0007F30F10008008312A0
:10007E000313FD01F901F80171087004031900342E
:10008E0071087506FA00FA1BFD09FB01F51F5428CD
:10009E00F409F509F40A0319F50AF11F5B28F009B2
:1000AE00F109F00A0319F10A71087504FA00FA1B36
:1000BE00702803207B188328FD1F0034F009F109F6
:1000CE00F00A0319F10AF809F909F80A0319F90AED
:1000DE000034F51F7F28F11B7B287108F90070088A
:1000EE00F800F101F0016328F101F001F00A00348B
:1000FE00F109F009FB0A6028F80A0319F90A7408D5
:10010E007802031D632875087902031D6328F9011F
:10011E00F801F00A0319F10AF11F63280000FF34F9
:02012E000800C7
:0E0130008312031343088A004208820008006D
:10013E00E83083120313F4000330F5004A08F00090
:10014E004B08F1002F207008C4007108C50070081C
:10015E00F2007108F300F20DF30D721072082C3ECE
:10016E00840000088800220885000330FC009730C8
:10017E00FD00FD0BC028FC0BC02800000000643001
:10018E00F4000030F5004A08F0004B08F1002F2073
:10019E007008C4007108C5000A30F4000030F50084
:1001AE002F207808F0007908F1007008C00071085F
:1001BE00C1007008F2007108F300F20DF30D721019
:1001CE0072082C3E84000008880024088500033045
:1001DE00FC009730FD00FD0BF228FC0BF22800000E
:1001EE0000000A30F4000030F5004A08F0004B0819
:1001FE00F1002F207008C4007108C5000A30F40009
:10020E000030F5002F207808F0007908F100700812
:10021E00C0007108C1007008F2007108F300F20D01
:10022E00F30D721072082C3E840000088800260818
:10023E0085000330FC009730FD00FD0B2429FC0BDC
:10024E002429000000004A08C4004B08C5000A30EB
:10025E00F4000030F5004A08F0004B08F1002F20A2
:10026E007808F0007908F1007008C0007108C1002C
:10027E007008F2007108F300F20DF30D721072089F
:10028E002C3E840000088800280885000330FC00FE
:10029E009730FD00FD0B5129FC0B51290000000089
:0202AE00080046
:1002B000831203138714C801C90180304906F00076
:1002C00080307002031D66299630480203187D298C
:1002D0008030F000803049067002031D7129480803
:1002E0004B3C0318742987104608CA004708CB0006
:0C02F0009F20C80A0319C90A5D290800F4
:1002FC0098208A110A128000840AC20A0319C30AC0
:08030C00F003031D7E29080027
:1003140083120313A001A1010430A200A301083039
:10032400A400A5011030A600A7012030A800A9014F
:10033400AA01AB013F30AC00AD010630AE00AF0105
:100344005B30B000B1014F30B200B3016630B4008D
:10035400B5016D30B600B7017D30B800B901073082
:10036400BA00BB017F30BC00BD016F30BE00BF01CD
:10037400073083169C000F309F00033086008801ED
:1003840083128801831685018312850183168710E1
:10039400831287100618F72980302B06F00080306E
:1003A400273A7002031DD8290F302A020318E329C3
:1003B400AA0A0319AB0A2A08C6002B08C700582149
:1003C400F729AA01AB01C601C70158212A08C600B2
:1003D4002B08C70058212A08C6002B08C70058213B
:1003E4002A08C6002B08C70058218618222A803004
:1003F400F00080302B067002031D022A2A08003CFC
:1004040003180E2A0130AA02031CAB032A08C600F3
:100414002B08C7005821222A2A08C6002B08C70027
:1004240058212A08C6002B08C70058212A08C600EC
:100434002B08C70058212A08C6002B08C7005821DA
:0E0444002A08CA002B08CB009F20CC29282AAA
:02400E004A2F37
:00000001FF
