:020000001E28B8
:10000800FF00030E8301A3000A08A2008A010B1D4A
:1000180017280B116C3081008518142885151728AE
:1000280005181728851122088A00230E8300FF0E61
:040038007F0E09002E
:10003C000730831203139F008630831681008B17C1
:10004C000B178B166C3083128100033083168500DE
:10005C0003308312850005110330FB008A30FC004D
:10006C005530FD00FD0B3828FC0B3828FB0B3828CD
:10007C000000000005150330FB008A30FC005530F1
:10008C00FD00FD0B4728FC0B4728FB0B4728000005
:06009C000000312850288D
:02400E0021216E
:00000001FF
