:020000000A2ACA
:06000600000000000800EC
:10000C000F3083120313FC004730FD00FD0B0C284E
:0A001C00FC0B0C2800000000080097
:0E002600213083120313FD00FD0B1728080084
:1000340083120313D01B2028861321288617501BF4
:100044002528061326280617D01A2A2886122B28B4
:100054008616501A2F2806123028061645183428FA
:10006400061535280611861503208611D0193C285B
:1000740086133D288617501941280613422806176F
:10008400D018462886124728861650184B28061280
:100094004C280616451850280615512806118615B1
:1000A40003208611451C58280620592813200800CF
:1000B400063083120313FD00FD0B5E2800000800C8
:1000C40083120313CB01CD01CE011030CF000430D5
:1000D4004E0203188E28F03088004F0983168800DA
:1000E400032003200F3083120805F0007008CC00B1
:1000F4007008031988284D08CB004C08031986287A
:10010400CC0CCC13CB0A7F280430CE00CF0D4F107B
:0E0114000430CD07CE0A69284B08F000080021
:0E012200831203133C088A003B088200080089
:1001300083120313F801F9011030FC00710DF80D62
:10014000F90D7408F8027508031C750FF9020318FD
:10015000B0287408F80775080318750FF90703101D
:0A016000F00DF10DFC0B9E280800C5
:10016A008312031345104B08D0001A2045140800C7
:10017A00CF28803083120313C600E228C030C6009D
:10018A00E2289430C600E228D430C600E228803043
:10019A00C600E228831203134608013A0319BE284F
:1001AA004608023A0319C3284608033A0319C6281F
:1001BA004608043A0319C928CC284703F000460820
:1001CA00F0077008C60045147008D0001A204510C0
:0A01DA004808D0001A204514080060
:1001E40083120313C9010530490203180029490881
:1001F4004807840020308000C90AF52849084807C8
:1002040084008001C90349084807CA000A30F40081
:10021400F5014608F0004708F10098207808F0003E
:100224007908F1003030F0074A0884007008800033
:100234000A30F400F5014608F0004708F100982060
:100244007008C6007108C70000307106031D2C2910
:1002540000307006031D2F293129C9030529080020
:1002640062207008C6000F300805F00003193C290D
:0A0274005A2035294608F000080062
:10027E0083120313C701C8014608F2004608F300B3
:10028E00720884000008203A031D522947084804CA
:10029E00031D52295F290130C7000030C8007208C3
:1002AE0084000008F0007308840070088000F30AD0
:1002BE007208F100F20A710884000008003A031D6A
:0802CE0047294608F000080072
:1002D60091208A110A128000840ABB0A0319BC0AFB
:0802E600F003031D6B29080061
:1002EE008316031386110611061286120613861341
:1002FE008312861106118613061386120612062025
:10030E000620062086160616861503208611062060
:10031E0086150320861106208615032086110620D9
:10032E0006128615032086110620861503208611D7
:10033E00861286178615032086110620861306164A
:10034E0086150320861106128615032086110620B7
:10035E0086150320861106168615032086110620A3
:10036E0006128615032086118617061786160616A0
:0C037E0086150320861106204514080097
:10038A00D729803083120313C600EA29C030C60079
:10039A00EA299430C600EA29D430C600EA29803016
:1003AA00C600EA29831203134608013A0319C6292B
:1003BA004608023A0319CB294608033A0319CE29FB
:1003CA004608043A0319D129D4294703F0004608FC
:1003DA00F0077008C6007008D0001A204510C9013D
:1003EA0049084807840000080319032A49084807EE
:1003FA0084000008CB00B520C90AF5294514080075
:0A040A00FF3083160313880008007A
:1004140083120313A0012030A1002030A200203059
:10042400A3002030A4002030A5002030A6002030F6
:10043400A7002030A8002030A900AA013130AB0069
:10044400AC014B30AD006530AE007930AF002030E8
:10045400B0002030B1003A30B200B3015430B400DF
:100464006930B5006D30B6006530B7007330B80040
:100474003A30B900BA01C301052277210130D00016
:100484001A200C30D0001A200130C6000130C700F9
:100494002B30C800C5210130C6000130C7002D3003
:1004A400C800C5210230C6000130C7003430C8007E
:1004B400C52183168601831286010F3083168800B6
:1004C4000F3083128800C40132217008C400700800
:1004D4000319662A07148230FC00DD30FD00FD0B91
:1004E400712AFC0B712A000000000710A92A313080
:1004F400C400E92A3230C400E92A3330C400E92AAE
:100504004130C400E92A3430C400E92A3530C4003B
:10051400E92A3630C400E92A4230C400E92A3730D7
:10052400C400E92A3830C400E92A3930C400E92A71
:100534004330C400E92A2A30C400E92A3030C40018
:10054400E92A2330C400E92A4430C400E92A4408D3
:10055400013A0319792A4408023A03197C2A440807
:10056400033A03197F2A4408043A0319822A4408E7
:10057400053A0319852A4408063A0319882A4408C7
:10058400073A03198B2A4408083A03198E2A4408A7
:10059400093A0319912A44080A3A0319942A440887
:1005A4000B3A0319972A44080C3A03199A2A440867
:1005B4000D3A03199D2A44080E3A0319A02A440847
:1005C4000F3A0319A32A4408103A0319A62A440827
:1005D40020060319F22A0130C3004408A000F32ABC
:1005E400C30A4408C6003F217008C8000130C60091
:1005F4000830C700BD204308FF3A031D092BC3017F
:100604000230C6000830C7002130C800C5214308A5
:10061400C600C7013D30C800F2203D30C6003F216E
:100624007008C8000230C6000830C700C521652A1A
:020634001A2B7F
:02400E004A2F37
:00000001FF
