:0200000058287E
:0E0006008312031336088A00350882000800B2
:10001400831603139818102800000A2883123B083B
:040024009900080037
:100028008316031398169030831298008316871747
:10003800071383128C1E23281A08F0001D280800B5
:10004800831203131A08F100981C2C28181218168A
:060058007108F000080031
:10005E0003208A110A128000840AB50A0319B60A0F
:08006E00F003031D2F28080018
:1000760083120313BA01380884000008B90039084E
:10008600003A031950283908BB000A20BA0A3A0870
:0C009600380784000008B9004228080068
:0E00A2000030831203138C1A0130F0000800A6
:1000B000533083120313A0007430A1006130A200FA
:1000C0007230A3007430A4002C30A5002030A600AC
:1000D0007430A7006530A8007330A9007430AA00FE
:1000E0006530AB002030AC006430AD006530AE0050
:1000F0002030AF004530B0006330B1006830B2004E
:100100006F30B300B401073083169C003330990080
:10011000181514200230FB000430FC00BA30FD003A
:10012000FD0B9028FC0B9028FB0B90280000203042
:10013000B8003B200A30BB000A200D30BB000A206B
:10014000512070080319AA2824207008B7007008ED
:08015000BB000A20A028AB2827
:02400E00022F7F
:00000001FF
