:020000002E28A8
:10000800FF00030E8301A2000A08A3008A010C1C4A
:1000180014280C10FF308F00FE308E0080308806C8
:0E00280023088A00220E8300FF0E7F0E0900BF
:0E0036008312031321088A00200882000800AC
:100044001B208A110A128000840AA00A0319A10A3B
:08005400F003031D222808003F
:10005C000130831603138700013083128700831647
:10006C0088018312880103309000FF308F00FE302E
:10007C008E00C0308B00013083168C0083128C01F3
:04008C004628472893
:02400E004A2F37
:00000001FF
