:02000000AB292A
:06000600000000000800EC
:10000C000F3083120313FC004730FD00FD0B0C284E
:0A001C00FC0B0C2800000000080097
:0E002600213083120313FD00FD0B1728080084
:1000340083120313BF1B20288813212888173F1B12
:100044002528081326280817BF1A2A2888122B28BF
:1000540088163F1A2F280812302808163618342814
:10006400081535280811881503208811BF193C2864
:1000740088133D2888173F19412808134228081778
:10008400BF1846288812472888163F184B2808129C
:100094004C280816361850280815512808118815B8
:1000A40003208811361C58280620592813200800DC
:1000B400023083120313FC004930FD00FD0B60285D
:0A00C400FC0B60280000000008009B
:0E00CE008312031335088A00340882000800EC
:1000DC008312031336103E08BF001A203614080092
:1000EC0083120313BD013908F1000130F0007108CF
:1000FC0003198428F00D7010FF3E7E287008BC0098
:10010C003808840070080005F10071080130031DE7
:10011C000030F0003B08F0060319AC283A08003C0C
:10012C0003189C285A205A20BA03942838088400B3
:10013C003C080005F10071080130031D0030F0008F
:10014C003B08F0060319AC28FF30BD003D08F00059
:02015C00080099
:10015E0083120313380803178D0083168C130C14A7
:08016E0083120C08F0000800E8
:10017600CD28803083120313B800E028C030B800C1
:10018600E0289430B800E028D430B800E028803069
:10019600B800E028831203133808013A0319BC2873
:1001A6003808023A0319C1283808033A0319C42843
:1001B6003808043A0319C728CA283903F000380852
:1001C600F0077008B8007008BF001A203610BB018F
:1001D6003B083A07840000080319F9283B083A0748
:1001E60084000008BE006E20BB0AEB283614080007
:1001F60067208A110A128000840AB40A0319B50A14
:08020600F003031DFB280800B2
:10020E00831603178C1C0D29000007298312031374
:10021E00380803178D000313390803178C00831653
:10022E008C130C150B08F0008B1355308D00AA3073
:10023E008D008C14F01B25298B1326298B170C117E
:02024E000800A6
:1002500083160313881108110812881208138813D3
:1002600083128811081188130813881208120620B7
:1002700006200620881608168815032088110620F7
:100280008815032088110620881503208811062070
:10029000081288150320881106208815032088116C
:1002A00088128817881503208811062088130816DD
:1002B000881503208811081288150320881106204C
:1002C0008815032088110816881503208811062038
:1002D0000812881503208811881708178816081631
:0C02E00088150320881106203614080041
:1002EC008829803083120313B8009B29C030B800D2
:1002FC009B299430B8009B29D430B8009B298030BE
:10030C00B8009B29831203133808013A0319772983
:10031C003808023A03197C293808033A03197F2953
:10032C003808043A0319822985293903F000380862
:10033C00F0077008B80036147008BF001A20361089
:0A034C003A08BF001A20361408001A
:1003560083120313A0014530A1005230A20052308F
:10036600A3004F30A400A5014F30A6004B30A700D4
:100376002130A8002130A900AA01AB017330AC00DE
:100386006530AD006E30AE006830AF006130B00051
:100396003A30B100B201B301B70183168801FF30CC
:1003A60086008312880128210130BF001A200130FF
:1003B600B8000130B9002C30BA00BB20B801AF201C
:1003C60070080313AB000130B8000830B9003030B4
:1003D6007007BA0076210230B8000830B900303014
:1003E6003307BA00762188140330FB000830FC007E
:1003F6007730FD00FD0BFD29FC0BFD29FB0BFD29CC
:10040600881088140330FB000830FC007730FD00AC
:10041600FD0B0B2AFC0B0B2AFB0B0B2A88108814EE
:100426000330FB000830FC007730FD00FD0B192A75
:10043600FC0B192AFB0B192A881088140330FB00C1
:100446000830FC007730FD00FD0B272AFC0B272A1D
:10045600FB0B272A88100630B800B9010A30BA000B
:10046600BB01762070080319562AB718562AB71406
:10047600B30A3308093C0318412AB3010230B80015
:100486000830B90030303307BA0076210230FB005D
:100496000430FC00BA30FD00FD0B4F2AFC0B4F2A3E
:1004A600FB0B4F2A00000630B800B9010A30BA002B
:1004B600BB0176207008031D632AB71C632AB71098
:1004C6000630B8000130B9000A30BA00BB01762008
:1004D600700803198C2A37198C2A3715AB0A2B0892
:1004E600093C0318772AAB010130B8000830B9007F
:1004F60030302B07BA0076210230FB000430FC00B6
:10050600BA30FD00FD0B852AFC0B852AFB0B852ADC
:1005160000000630B8000130B9000A30BA00BB014D
:1005260076207008031D9A2A371D9A2A371106303D
:10053600B8000230B9000A30BA00BB017620700854
:100546000319B92AB719B92AB715B8012B08B90082
:1005560007210230FB000430FC00BA30FD00FD0B21
:10056600B22AFC0BB22AFB0BB22A00000630831219
:100576000313B8000230B9000A30BA00BB01762076
:100586007008031DC92AB71DC92AB7110630B8005D
:100596000330B9000A30BA00BB017620700803198F
:1005A600FF2A371AFF2A3716B801AF20700803133F
:1005B600A00070083306031DEA2A0130B8000C308B
:1005C600B9002630BA00BB208814A001F22A0130F7
:1005D600B8000C30B9002130BA00BB2088100230B8
:1005E600FB000430FC00BA30FD00FD0BF82AFC0BC2
:1005F600F82AFB0BF82A00000630B8000330B900D1
:100606000A30BA00BB0176207008031D0D2B371E79
:080616000D2B37122E2A0E2BCA
:02400E004A2F37
:00000001FF
