:0200000039289D
:10000800FF00030E8301A4000A08A5008A010B1D46
:100018001F280B1106308100A00A0319A10A210824
:10002800013A031D1928F4302006031D1F28A001DA
:10003800A1018030860625088A00240E8300FF0E61
:040048007F0E09001E
:0E004C008312031323088A0022088200080092
:10005A0026208A110A128000840AA20A0319A30A16
:08006A00F003031D2D2808001E
:1000720083120313A001A10107309F008130831670
:100082008100A0308B000630831281007F308316FE
:0C00920086007F30831286004D284E2827
:02400E0061212E
:00000001FF
