:1000000002308A00372A00000A108A100A1182077B
:10001000313432343334343435343634373438349C
:1000200039342A34303423340A108A100A118207F2
:1000300028340C3401340634C434E734F4323A1032
:100040000000D637E3322032E933693AEF3AA012A2
:1000500063008A110A12472A2B3084008313000898
:1000600003193F280630F800F701F70B3528F80B85
:1000700034287B30F700F70B3B28800B3228080030
:10008000320EF039F7000F300605770486000000C5
:1000900006140230F700F70B4B284E28000006101C
:1000A00008000608F700060E0F39F800080083164E
:1000B000061086100611831286100F30831606056F
:1000C000F038860083120615000006140000512047
:1000D0007808B2000610000006146E286F28000091
:1000E00051207808B10006100F30831606058600EF
:1000F0008312320EF700F030F70577083104F8006C
:100100007808B100B11B5D282F1C86102F188614AB
:100110000000061100000610300EB1000F30B105CE
:100120003108B200402030080F39B100B200402041
:1001300008000F308316060586000610861006118B
:1001400083128610061106100F30AB002C200130F0
:10015000A5002508033C031CB5280330B20040204D
:100160000530AB002C20A50AA9280230B20040209F
:100170000530AB002C20A5012508033C031CC92831
:1001800025081420A600AF012608B0005720A50AB4
:10019000BC288A110A12482A2C0BCF28D2284030BA
:1001A000AD00D328AD0101302B02AD072D088038FA
:1001B000AE00AF012E08B000572008002A08073A09
:1001C0000319EC280B3A0319F128063A0319F92808
:1001D000023A0319FF2804290130AB00AC00CC20FF
:1001E0000929AF010130B00057200230AB002C20AC
:1001F00009290130AB000230AC00CC200929AF0145
:100200001030B000572009290130AF002A08B00093
:10021000572008000B08A5008B13831603178C17B3
:100220000C140000000083120C087F3903195129B7
:100230000313A60003170D080313A70003170F08E5
:100240000313A8002608AA00DE20270803178D0044
:100250000313280803178F0083168C170C14000053
:10026000000083120C0D0E0D7F3903195129031361
:10027000A60003170D080313A70003170F080313A5
:10028000A8002608AA00DE20270803178D00031304
:10029000280803178F008D0A03198F0A03130D29ED
:1002A00003170313A51B8B178A110A12562AA501DF
:1002B000A00A2008213C0318D8292308031967291C
:1002C000013A03196D29033A031973297829DE309D
:1002D00083168800831288007829BE308316880030
:1002E0008312880078297E30831688008312880064
:1002F000211C842908081E391E3C031D8329211056
:100300002208A500A201D72908081E391E3C03199E
:10031000D22908080239031D8F29A601A32908083C
:100320000439031D96290130A600A32908080839BD
:10033000031D9D290230A600A32908081039031DBA
:10034000A3290330A6002608A7000330A800F70160
:10035000F801270803102818F707F70CF80CA8185D
:10036000F707F70CF80C2819F707F70CF80CA81981
:10037000F707F70CF80C281AF707F70CF80CA81A6F
:10038000F707F70CF80C281BF707F70CF80CA81B5D
:10039000F707F70CF80C230878070420F800A200F0
:1003A0002114D729A30A2308033C0319A301A001A0
:1003B000FE308316880083122508F8008A110A127D
:1003C0005A2A0B08A6008B13831603178C170C14DC
:1003D000000000000318132A83120C087F3903134E
:1003E000A70003170D080313A80003170F08031332
:1003F000A9002708AA00DE20280803178D00031390
:10040000290803178F0083168C170C1400000000B6
:1004100083120313A50B0D2A102A83160317132A20
:10042000322A8316031783120C0D0E0D7F39031326
:10043000A70003170D080313A80003170F080313E1
:10044000A9002708AA00DE20280803178D0003133F
:10045000290803178F008D0A03198F0A031003134D
:10046000A50BE429A61B8B178A110A12712A831681
:100470001F149F141F159F1107309C0083131F30FA
:1004800083058312A0012110A201A3012928992824
:100490000C30AA00DE200130AB00AC00CC201C30B8
:1004A00003178D0000308F0003130A293230AB0090
:1004B0002C2057297808A4000130AB002C20A40878
:1004C0000319742A0130AB000230AC00CC2021307B
:1004D00003178D0000308F0003100D300313A500AB
:0C04E000E1292408AA00DE20592A63004C
:02400E00323F3F
:00000001FF
;PIC16F877A
;CRC=8EDA  CREATED="31-mai-23 09:58"
