:1000000000308A001928000024308400831300087F
:10001000031918280130F800F701F70B0D28F80B29
:100020000C284A30F700F70B13281628800B0A28F3
:100030000800A101A001FF30A20083161F149F1425
:100040001F159F1107309C0083131F30830500305C
:10005000F8000438831292006330831692008312F2
:100060002211220883168700831207110C30970093
:1000700095011708CF399700831605148312051CC4
:1000800070282830A0070318A10AA11B56282108B0
:10009000003C03185628FF3A031D52282008903CC4
:1000A000031856280130A1009030A0002108F90063
:1000B0002008F800F90CF80CF90CF80CF90C780889
:1000C0009500F90C790C3039F7001708CF3977040F
:1000D00097000230A3009630A4000420A30B6B28E5
:1000E000831685148312851C99282830A0020030BD
:1000F000031C0130A102A11F7F28A101A00121083A
:10010000F9002008F800F90CF80CF90CF80CF90CBF
:1001100078089500F90C790C3039F7001708CF39B9
:10012000770497000230A3009630A4000420A30BAC
:0601300094283C28630046
:02400E00313F40
:00000001FF
;PIC16F877A
;CRC=3C36  CREATED="06-jan-23 11:26"
