:1000000001308A00F72900000A108A100A118207BD
:10001000313432343334343435343634373438349C
:1000200039342A34303423340A108A100A118207F2
:1000300028340C34013406340C22E933693A651053
:100040006110D3326E34611D200500008C294527D4
:10005000C820A02252294122C11000010C22E933FC
:10006000693A65106110D3326E34611D20050001BC
:100070008C294527C820A0214F29D222D420210035
:100080000C22E933693A65106110D3326E34611D78
:10009000200500008A111B2A3330840083130008D6
:1000A000031960280130F800F701F70B5528F80B09
:1000B00054284A30F700F70B5B285E28800B522843
:1000C00008003A0EF039F7000F3006057704860075
:1000D000000006146B28061008000608F700060E3C
:1000E0000F39F800080083160610861006118312D7
:1000F00086100F3083160605F03886008312061529
:100100000000061400006D207808BA0006100000F8
:10011000061400006D207808B90006100F30831611
:100120000605860083123A0EF700F030F7057708CF
:100130003904F8007808B900B91B7928371C8610F3
:10014000371886140000061100000610380EB9009A
:100150000F30B9053908BA00612038080F39B900E5
:10016000BA00612008000F308316060586000610CD
:100170008610061183128610061106100F30B30088
:100180004C200130AE002E08033C031CCF28033066
:10019000BA0061200530B3004C20AE0AC3280230FB
:1001A000BA0061200530B3004C20AE012E08033C9C
:1001B000031CE3282E081420AF00B7012F08B80055
:1001C0007320AE0AD6288A111C2A340BE828EB28A3
:1001D0004030B500EC28B50101303302B5073508D1
:1001E0008038B600B7013608B8007320080032081E
:1001F000073A031905290B3A03190A29063A031984
:100200001229023A031918291D290130B300B4003C
:10021000E5202229B7010130B80073200230B30075
:100220004C2022290130B3000230B400E5202229FD
:10023000B7011030B800732022290130B70032080E
:10024000B800732008000B08AE008B138316031749
:100250008C170C140000000083120C087F3903195E
:100260006A290313AF0003170D080313B000031727
:100270000F080313B1002F08B200F720300803174E
:100280008D000313310803178F0083168C170C148D
:100290000000000083120C0D0E0D7F3903196A292E
:1002A0000313AF0003170D080313B00003170F0863
:1002B0000313B1002F08B200F720300803178D0098
:1002C0000313310803178F008D0A03198F0A0313D4
:1002D000262903170313AE1B8B170800AE01A00AD3
:1002E0002008213C0318EF29230803197E29013A2D
:1002F00003198429033A03198A298F29DE308316CA
:100300008600831286008F29BE30831686008312F2
:1003100086008F297E308316860083128600211C7A
:100320009B2906081E391E3C031D9A29211022080C
:10033000AE00A201EE2906081E391E3C0319E92968
:1003400006080239031DA629AF01BA290608043997
:10035000031DAD290130AF00BA2906080839031D75
:10036000B4290230AF00BA2906081039031DBA2992
:100370000330AF002F08B0000330B100F701F801DF
:10038000300803103118F707F70CF80CB118F7070D
:10039000F70CF80C3119F707F70CF80CB119F7073F
:1003A000F70CF80C311AF707F70CF80CB11AF7072D
:1003B000F70CF80C311BF707F70CF80CB11BF7071B
:1003C000F70CF80C230878070420F800A200211489
:1003D000EE29A30A2308033C0319A301A001FE3060
:1003E0008316860083122E08F8008A11242A6230B0
:1003F00083168F000F088312AC01AD0183161F1204
:100400009F121B0880399B0007309C0083131F300C
:1004100083058312A0012110A201A3013130A7009E
:100420003930A8003730A9003130AA00AB01A6014D
:100430002730A5004A28B3281C3003178D00003050
:100440008F00031323216E297808A4000230B30023
:100450004C20A40803193D2A2408B200F720C83014
:10046000B3004C202C08250784008313261883171B
:1004700024080002031DAD0AAC0A2C08043C031D2D
:10048000632AAD080319632A263003178D00003054
:100490008F000313232183160513831205170830D9
:1004A000AE00FA30B3004C20AE0B512A8316051370
:1004B000831205132E3003178D0000308F000313B5
:1004C0002321AC01AD012C08043C031D892AAD0891
:1004D000031D892A383003178D0000308F00031365
:1004E000232183168513831285170830AE00FA3056
:1004F000B3004C20AE0B772A831685138312851325
:10050000403003178D0000308F0003132321AC010E
:06051000AD01232A630087
:04400E00103FFC3F24
:00000001FF
;PIC16F88
;CRC=6BD9  CREATED="06-jan-23 09:44"
