:02000000B82A1C
:10000800FF00030E8301C3000A08C4008A017008B8
:10001800A0000B1D73280B118101861C32283308A0
:10002800013A031D32280230B300861006158615E2
:10003800061A22280130CB00AA223228861A28283C
:100048000430CB00AA223228061B2E280730CB000A
:10005800AA223228861B32283230B000061D5328C7
:100068003308023A031D53280330B30086140611DF
:100078008615061A43280230CB00AA225328861A6E
:1000880049280530CB00AA225328061B4F280830E0
:10009800CB00AA225328861B5328CB01AA22861DEF
:1000A80073283308033A031D73280130B3008614FC
:1000B80006158611061A64280330CB00AA22732875
:1000C800861A6A280630CB00AA227328061B7028D5
:1000D8000930CB00AA227328861B7328B101200897
:1000E800F00044088A00430E8300FF0E7F0E0900CB
:0A00F80000000000000000000800F6
:100102001D3083120313FC009130FD00FD0B872884
:06011200FC0B8728080029
:10011800423083120313FD00FD0B902800000800F5
:1001280083120313CA1B9A2888139B2888174A1B13
:100138009F280813A0280817CA1AA4288812A528D7
:1001480088164A1AA9280812AA2808164218AE289A
:100158000815AF28081188157C208811CA19B628F7
:100168008813B72888174A19BB280813BC2808170A
:10017800CA18C0288812C12888164A18C528081223
:10018800C62808164218CA280815CB280811881549
:100198007C208811421CD2288120D3288C2008007A
:1001A800710DF80DF90D7408F8027508031C750F28
:1001B800F902F00DF10D0F30FC00710DF80DF90D7D
:1001C8007408701CED28F8027508031C750FF902F5
:1001D800F228F80775080318750FF907F00DF10DE7
:1001E800FC0BE1287018FE287408F8077508031836
:0801F800750FF9070000080073
:10020000831203137008F100F0010830FC0071083C
:10021000F40C03180F29FC0B0829F101003403101A
:100220001429F40C0318F107F10CF00CFC0B112944
:020230000800C4
:0E0232008312031341088A004008820008006E
:1002400083120313FB01FA01F9018030F800F10C6D
:10025000F00C031C34297408F90775080318750F8E
:10026000FA070318FB0A0310F01F3C297408FA0769
:1002700075080318750FFB07FB0CFA0CF90CF80C4A
:10028000031C27297B08F3007A08F2007908F100A3
:060290007808F0000800F0
:100296008312031342104908CA009420421408002E
:1002A600831603131208013EF000F1010318F10A48
:1002B60083124508F400F50120210630F20070088B
:1002C600F4007108F500720803196E29F50CF40C98
:1002D600F513FF3E67290430F1007408F000710839
:1002E60003197929F00D7010FF3E73298312031349
:1002F60030307005F3007408F0007508F100F10C59
:10030600F00CF113F10CF00CF113700895000F309E
:08031600970573089704080025
:10031E00831603130711831212150C30970408006D
:10032E00831203137408003A031DA6297508003AB8
:10033E00031DA629FF30F0007F30F1000800831264
:10034E000313FD01F901F80171087004031900345B
:10035E0071087506FA00FA1BFD09FB01F51FBC2991
:10036E00F409F509F40A0319F50AF11FC329F00976
:10037E00F109F00A0319F10A71087504FA00FA1B63
:10038E00D829D4207B18EB29FD1F0034F009F10980
:10039E00F00A0319F10AF809F909F80A0319F90A1A
:1003AE000034F51FE729F11BE3297108F9007008E5
:1003BE00F800F101F001CB29F101F001F00A00344F
:1003CE00F109F009FB0AC829F80A0319F90A740899
:1003DE007802031DCB2975087902031DCB29F9017B
:1003EE00F801F00A0319F10AF11FCB290000FF34BE
:0203FE000800F5
:10040000831203134508F0000A30F4000021460867
:04041000F0070800E9
:0C041400831203139501171297120800C1
:100420008316031388110811081288120813881301
:10043000831288110811881308138812081281206A
:10044000812081208816081688157C20881181203B
:1004500088157C208811812088157C2088118120B6
:10046000081288157C208811812088157C2088112D
:100470008812881788157C20881181208813081617
:1004800088157C208811081288157C20881181200D
:1004900088157C208811081688157C2088118120F9
:1004A000081288157C2088118817081788160816E6
:0C04B00088157C2088118120421408006F
:1004BC00702A803083120313C500832AC030C50014
:1004CC00832A9430C500832AD430C500832A803017
:1004DC00C500832A831203134508013A03195F2AC6
:1004EC004508023A0319642A4508033A0319672A96
:1004FC004508043A03196A2A6D2A4603F000450898
:10050C00F0077008C5007008CA0094204210C8019A
:10051C00480847078400000803199C2A4808470725
:10052C0084000008C9004B21C80A8E2A4214080016
:10053C0019218A110A128000840AC00A0319C10AFF
:08054C00F003031D9E2A0800C4
:10055400831203133408003A031DB52A4B08A10083
:0C0564000130B400B72A4B08AF000800BB
:1005700083120313A1015630A2006130A3006C3036
:10058000A4006F30A5007230A6002030A7004430D0
:10059000A8007530A9007430AA007930AB003A3059
:1005A000AC002030AD00AE01AF01B0010130B100B0
:1005B0003530B2000130B300B4015030B5005730CF
:1005C000B6004D30B7002030B8004330B9006F306E
:1005D000BA006E30BB006630BC006930BD006730C9
:1005E000BE00BF01073083169C0007309F00873094
:1005F00081008B170B178B1683128101F030831645
:100600008600FF3083128600FB308316870003309C
:100610008800033085000330831285001214921481
:100620007C30831692000A2210220C30CA009420DB
:100630000130CA0094200130C5000430C6003208E1
:10064000C7005E228F210230C5000130C600223073
:10065000C7005E2230302107C9004B2130302F0700
:10066000C9004B213108031D3F2B2108C5002F086D
:10067000C60000227008B0000130B100B40130089B
:10068000F000FF30F40000216430F4000030F50089
:1006900097217008C50053210330FB000830FC008F
:1006A0007730FD00FD0B522BFC0B522BFB0B522B1A
:0406B000232B592B74
:02400E00022F7F
:00000001FF
