:1000000001308A00DC2900000A108A100A118207D8
:1000100028340C340134063420104121CD29202A03
:100020006536E531EF362010000020102021E5363E
:10003000202B6937E437211020100001CD30F23138
:1000400065366F002D3084008313000803193628AD
:100050000130F800F701F70B2B28F80B2A284A305B
:10006000F700F70B31283428800B282808003418B3
:100070003B2806123C280616831606128312B41873
:100080004328861244288616831686128312341952
:100090004B2806134C280617831606138312B4192F
:1000A000532886135428861783168613000083125C
:1000B0000614831606105C28831206108316061099
:1000C00083120800B5018316061600308312061A43
:1000D0000130B5048316861600308312861A01306B
:1000E000F7000310F70D7708B504831606170030E4
:1000F0008312061B0130F700F70DF70DFC30F705F2
:100100007708B5048316861700308312861B0130EA
:10011000F700F70DF70DF70DF830F7057708B50480
:100120003508F800080083160610861006118312A1
:1001300086108316861006168616061786178312F3
:100140000615831606110000831206148316061086
:100150000000831262207808B4000610831606108F
:10016000000083120614831606100000831262201A
:100170007808B300061083160610061286120613BE
:1001800086138312340EF700F030F7057708330436
:10019000F8007808B300B31FCF2883169B28B10856
:1001A000031DD4288610D5288614831686100000D7
:1001B000831206118316061100008312061083169F
:1001C00006108312320EB3000F30B3053308B400AB
:1001D000372032080F39B300B400372008008316E7
:1001E0000612861206138613061086100611831255
:1001F0008610831686108312061183160611831249
:100200000610831606100F308312AD002220013035
:10021000A8002808033C031C15290330B40037202C
:100220000530AD002220A80A09290230B400372089
:100230000530AD002220A8012808033C031C292911
:1002400028080420A900B1012908B2009320A80AB7
:100250001C298A11F929A80DA80DA80DF830A805A8
:100260003830A80528084038AC00B1012C08B2008D
:100270009320AB012B08073C031C51292A08FA00E4
:100280002908A90A0319AA0A840083137A18831774
:100290000008AC000130B1002C08B2009320AB0A7A
:1002A0003A298A11FE292E0B562959294030AF00D0
:1002B0005A29AF0101302D02AF072F088038B00056
:1002C000B1013008B200932008002C08073A031946
:1002D00073290B3A03197829063A03198029023A3F
:1002E000031986298B290130AD00AE0053219029D6
:1002F000B1010130B20093200230AD0022209029DC
:100300000130AD000230AE0053219029B101103010
:10031000B200932090290130B1002C08B200932044
:1003200008000B08A8008B13831603178C170C14F6
:100330000000000083120C087F390319D829031329
:10034000A90003170D080313AA0003170F080313CE
:10035000AB002908AC0065212A0803178D000313A0
:100360002B0803178F0083168C170C140000000055
:1003700083120C0D0E0D7F390319D8290313A90020
:1003800003170D080313AA0003170F080313AB008C
:100390002908AC0065212A0803178D0003132B08D8
:1003A00003178F008D0A03198F0A0313942903176B
:1003B0000313A81B8B170800623083168F000F08E9
:1003C0001F129F121B0880399B0007309C0083136B
:1003D0001F3083058312A001A1010A30A20015304D
:1003E000A3001130A4000A30A5000430A600A70124
:1003F000EF28A801AA012030A9002B290C30AC005D
:1004000065210C3003178D0000308F0003139121FC
:100410000D30AC0065210A30AC00652115300317A2
:100420008D0000308F00031391210830A800FA30AE
:10043000AD002220A80B172A0C30AC0065211A3021
:10044000AD000130AE0053211E3003178D00003087
:100450008F00031391211D30AD000230AE005321F7
:10046000AC0165210230A800FA30AD002220A80BB3
:10047000342A0C30AC0065210230A800FA30AD00FF
:0A0480002220A80B3E2A1C2A63006C
:04400E00103FFC3F24
:00000001FF
;PIC16F88
;CRC=F3E7  CREATED="31-mai-23 08:24"
