:02000000A32833
:100006008312031389100330FC009730FD00FD0BAB
:100016000A28FC0B0A280000000089140330FC00A3
:100026009730FD00FD0B1528FC0B1528000000007D
:1000360089100330FC009730FD00FD0B2028FC0BD7
:08004600202800000000080062
:0E004E008312031309154608880003200800DA
:0E005C008312031343088A0042088200080042
:0E006A000730831603139F00880189010800E8
:1000780083120313C5010F30450203184B284508A6
:10008800440784000008C6002720C50A3F28080046
:100098002E208A110A128000840AC20A0319C30A90
:0800A800F003031D4C280800C1
:0E00B00083120313091144088800032008007E
:1000BE00683083120313FC00E430FD00FD0B65284D
:1000CE00FC0B65280000091138308800032027300A
:1000DE00FC00F530FD00FD0B7228FC0B7228383049
:1000EE00880003202730FC00F530FD00FD0B7D2835
:1000FE00FC0B7D280630880003202730FC00F530ED
:10010E00FD00FD0B8828FC0B88280C30880003208E
:10011E002730FC00F530FD00FD0B9328FC0B9328D7
:10012E000130880003202730FC00F530FD00FD0B68
:08013E009E28FC0B9E2808001E
:10014600203083120313A0005330A1006530A200B3
:100156006A30A3006130A4002030A5004230A6001A
:100166006530A7006D30A8002030A9005630AA00DF
:100176006930AB006E30AC006430AD006F30AE005D
:100186002130AF00B0012030B1002030B200413044
:10019600B3004230B4004D30B5005330B6002030C5
:1001A600B7005430B8006530B9006C30BA0065301D
:1001B600BB006330BC006F30BD006D30BE00203028
:1001C600BF002030C000C10135205F208030C40050
:1001D600C50158203130C4003C20C030C400C501E0
:1001E60058202030C4003C201530FB004B30FC006A
:1001F600BE30FD00FD0BFD28FC0BFD28FB0BFD288A
:1002060000000130C4000030C50058201530FB0046
:100216004B30FC00BE30FD00FD0B0F29FC0B0F29F7
:0A022600FB0B0F290000E92817293F
:02400E00022F7F
:00000001FF
