:02000000B62820
:10000800FF00030E8301A3000A08A4008A010B1D48
:1000180076280B116C308100861C32282008013AA2
:10002800031D32280230A000861006158615061A10
:1000380021280130A50090203228861A272804306C
:10004800A50090203228061B2D280730A5009020F7
:100058003228861B32280B30A5009020061D542814
:100068002008023A031D54280330A0008614061104
:100078008615061A43280230A50090205428861AAF
:1000880049280530A50090205428061B4F28083021
:10009800A50090205428861B54280A30A5009020DB
:1000A800861D76282008033A031D76280130A00013
:1000B800861406158611061A65280330A5009020B7
:1000C8007628861A6B280630A50090207628061B0D
:1000D80071280930A50090207628861B76280C30D8
:1000E800A500902024088A00230E8300FF0E7F0EAF
:0200F8000900FD
:0E00FA008312031322088A00210882000800E6
:100108007D208A110A128000840AA10A0319A20A12
:08011800F003031D8428080018
:1001200083120313F101250871020318B528851500
:100130000230FB000430FC00BA30FD00FD0B9E28AD
:10014000FC0B9E28FB0B9E28000085110230FB0053
:100150000430FC00BA30FD00FD0BAC28FC0BAC28D1
:0C016000FB0BAC280000F10A93280800FB
:10016C00013083120313A00007309F0086308316E2
:10017C0081008B170B178B166C30831281000330A8
:10018C0083168500F0308600033083128500FF3023
:06019C008600CF28D028E8
:02400E0022216D
:00000001FF
