:02000000412895
:0E0006008312031325088A00240882000800D4
:0E001400073083120313FD00FD0B0E280800B9
:10002200831203139F01C0309F0483161F179F176B
:1000320083122608F000F00D7010F00D7010F00D14
:10004200701070089F041F140A201F151F1D2B28F3
:10005200000027281F101E08F100F00183161E0859
:08006200F0040030F104080075
:10006A0003208A110A128000840AA40A0319A50A25
:08007A00F003031D3528080006
:100082008316031386018312860183168701831266
:10009200870183168801831288018316051483124F
:1000A200A60111207008F2007108F300F30CF20CA3
:1000B200F313F30CF20CF31372088312A00073080B
:1000C200A10072088800A601112070088312A20004
:1000D2007108A300700886007108F200F30172082B
:0600E2008700502873287E
:02400E004A2F37
:00000001FF
