:020000001628C0
:0E000600831203132C088A002B0882000800C6
:1000140003208A110A128000840AAB0A0319AC0A6D
:08002400F003031D0A28080087
:10002C003F3083120313A0000630A1005B30A20006
:10003C004F30A3006630A4006D30A5007D30A600C3
:10004C000730A7007F30A8006F30A9008316880105
:10005C0083128801AA0109302A02031848282A08A9
:10006C00203E8400000888000330FB000830FC00B0
:10007C007730FD00FD0B4028FC0B4028FB0B402883
:08008C00AA0A31283028492896
:02400E004A2F37
:00000001FF
