:020000002B28AB
:10000800FF00030E8301A4000A08A5008A01A00AC4
:100018000319A10A063081000B1125088A00240E55
:080028008300FF0E7F0E0900AA
:0E0030008312031323088A00220882000800AE
:10003E0018208A110A128000840AA20A0319A30A40
:08004E00F003031D1F28080048
:1000560083120313A001A10183168801831288016C
:100066008B170B138B1606308100823083168100A6
:1000760083122108033A031D4228E8302006031D97
:0E008600482801308806A001A1013B28492826
:02400E004A2F37
:00000001FF
